{
  "contractName": "Hello",
  "abi": [
    {
      "inputs": [],
      "stateMutability": "nonpayable",
      "type": "constructor"
    },
    {
      "inputs": [],
      "name": "message",
      "outputs": [
        {
          "internalType": "string",
          "name": "",
          "type": "string"
        }
      ],
      "stateMutability": "view",
      "type": "function"
    }
  ],
  "bytecode": "0x608060405234801561001057600080fd5b50604051806080016040528060548152602001610280605491396000908051906020019061003f929190610045565b506100ea565b828054600181600116156101000203166002900490600052602060002090601f016020900481019282601f1061008657805160ff19168380011785556100b4565b828001600101855582156100b4579182015b828111156100b3578251825591602001919060010190610098565b5b5090506100c191906100c5565b5090565b6100e791905b808211156100e35760008160009055506001016100cb565b5090565b90565b610187806100f96000396000f3fe608060405234801561001057600080fd5b506004361061002b5760003560e01c8063e21f37ce14610030575b600080fd5b6100386100b3565b6040518080602001828103825283818151815260200191508051906020019080838360005b8381101561007857808201518184015260208101905061005d565b50505050905090810190601f1680156100a55780820380516001836020036101000a031916815260200191505b509250505060405180910390f35b60008054600181600116156101000203166002900480601f0160208091040260200160405190810160405280929190818152602001828054600181600116156101000203166002900480156101495780601f1061011e57610100808354040283529160200191610149565b820191906000526020600020905b81548152906001019060200180831161012c57829003601f168201915b50505050508156fea2646970667358221220601103d5cba9f562ecb7ceed56707e434f14a50b34a03db75be98b5f0e3ce40764736f6c6343000602003348656c6c6f2c20576f726c64203a2054686973206973206120536f6c696469747920536d61727420436f6e7472616374206f6e20746865205072697661746520457468657265756d20426c6f636b636861696e20",
  "source": "pragma solidity ^0.6.1;\n\ncontract Hello {\n   string public message;\n   constructor() public {\n     message = \"Hello, World : This is a Solidity Smart Contract on the Private Ethereum Blockchain \";\n   }\n}\n",
  "sourcePath": "/Users/adrian.septiandry/Documents/GitHub/blockchain/truffle/contracts/Hello.sol",
  "compiler": {
    "name": "solc",
    "version": "0.6.2+commit.bacdbe57.Linux.g++"
  },
  "schemaVersion": "3.0.21",
  "updatedAt": "2020-01-27T20:10:35.661Z",
  "devdoc": {
    "methods": {}
  },
  "userdoc": {
    "methods": {}
  }
}